{
  "contractName": "Election",
  "abi": [
    {
      "inputs": [],
      "payable": false,
      "stateMutability": "nonpayable",
      "type": "constructor"
    },
    {
      "constant": true,
      "inputs": [
        {
          "internalType": "uint256",
          "name": "",
          "type": "uint256"
        }
      ],
      "name": "TimingList",
      "outputs": [
        {
          "internalType": "uint256",
          "name": "month",
          "type": "uint256"
        },
        {
          "internalType": "uint256",
          "name": "day",
          "type": "uint256"
        },
        {
          "internalType": "uint256",
          "name": "hour",
          "type": "uint256"
        },
        {
          "internalType": "uint256",
          "name": "min",
          "type": "uint256"
        },
        {
          "internalType": "uint256",
          "name": "sec",
          "type": "uint256"
        }
      ],
      "payable": false,
      "stateMutability": "view",
      "type": "function"
    },
    {
      "constant": true,
      "inputs": [
        {
          "internalType": "uint256",
          "name": "",
          "type": "uint256"
        }
      ],
      "name": "candidates",
      "outputs": [
        {
          "internalType": "uint256",
          "name": "id",
          "type": "uint256"
        },
        {
          "internalType": "string",
          "name": "name",
          "type": "string"
        },
        {
          "internalType": "uint256",
          "name": "countVote",
          "type": "uint256"
        },
        {
          "internalType": "string",
          "name": "partyName",
          "type": "string"
        }
      ],
      "payable": false,
      "stateMutability": "view",
      "type": "function"
    },
    {
      "constant": true,
      "inputs": [],
      "name": "countCandidate",
      "outputs": [
        {
          "internalType": "uint256",
          "name": "",
          "type": "uint256"
        }
      ],
      "payable": false,
      "stateMutability": "view",
      "type": "function"
    },
    {
      "constant": true,
      "inputs": [],
      "name": "timingNumber",
      "outputs": [
        {
          "internalType": "uint256",
          "name": "",
          "type": "uint256"
        }
      ],
      "payable": false,
      "stateMutability": "view",
      "type": "function"
    },
    {
      "constant": true,
      "inputs": [
        {
          "internalType": "address",
          "name": "",
          "type": "address"
        }
      ],
      "name": "voters",
      "outputs": [
        {
          "internalType": "bool",
          "name": "",
          "type": "bool"
        }
      ],
      "payable": false,
      "stateMutability": "view",
      "type": "function"
    },
    {
      "constant": false,
      "inputs": [
        {
          "internalType": "string",
          "name": "_name",
          "type": "string"
        },
        {
          "internalType": "string",
          "name": "_partyName",
          "type": "string"
        }
      ],
      "name": "addCandidates",
      "outputs": [],
      "payable": false,
      "stateMutability": "nonpayable",
      "type": "function"
    },
    {
      "constant": false,
      "inputs": [
        {
          "internalType": "uint256",
          "name": "_candidateId",
          "type": "uint256"
        }
      ],
      "name": "vote",
      "outputs": [],
      "payable": false,
      "stateMutability": "nonpayable",
      "type": "function"
    },
    {
      "constant": false,
      "inputs": [
        {
          "internalType": "uint256",
          "name": "_month",
          "type": "uint256"
        },
        {
          "internalType": "uint256",
          "name": "_day",
          "type": "uint256"
        },
        {
          "internalType": "uint256",
          "name": "_hour",
          "type": "uint256"
        },
        {
          "internalType": "uint256",
          "name": "_min",
          "type": "uint256"
        },
        {
          "internalType": "uint256",
          "name": "_sec",
          "type": "uint256"
        }
      ],
      "name": "changeTimer",
      "outputs": [],
      "payable": false,
      "stateMutability": "nonpayable",
      "type": "function"
    }
  ],
  "bytecode": "0x608060405234801561001057600080fd5b50610931806100206000396000f3fe608060405234801561001057600080fd5b50600436106100885760003560e01c8063a3ec138d1161005b578063a3ec138d14610290578063a644069e146102ec578063aa9225561461030a578063c0ff3e551461045c57610088565b80630121b93f1461008d5780630b482f97146100bb5780633477ee2e1461011957806354162f0a1461023a575b600080fd5b6100b9600480360360208110156100a357600080fd5b810190808035906020019092919050505061047a565b005b6100e7600480360360208110156100d157600080fd5b810190808035906020019092919050505061056b565b604051808681526020018581526020018481526020018381526020018281526020019550505050505060405180910390f35b6101456004803603602081101561012f57600080fd5b81019080803590602001909291905050506105a1565b604051808581526020018060200184815260200180602001838103835286818151815260200191508051906020019080838360005b8381101561019557808201518184015260208101905061017a565b50505050905090810190601f1680156101c25780820380516001836020036101000a031916815260200191505b50838103825284818151815260200191508051906020019080838360005b838110156101fb5780820151818401526020810190506101e0565b50505050905090810190601f1680156102285780820380516001836020036101000a031916815260200191505b50965050505050505060405180910390f35b61028e600480360360a081101561025057600080fd5b810190808035906020019092919080359060200190929190803590602001909291908035906020019092919080359060200190929190505050610701565b005b6102d2600480360360208110156102a657600080fd5b81019080803573ffffffffffffffffffffffffffffffffffffffff16906020019092919050505061078b565b604051808215151515815260200191505060405180910390f35b6102f46107ab565b6040518082815260200191505060405180910390f35b61045a6004803603604081101561032057600080fd5b810190808035906020019064010000000081111561033d57600080fd5b82018360208201111561034f57600080fd5b8035906020019184600183028401116401000000008311171561037157600080fd5b91908080601f016020809104026020016040519081016040528093929190818152602001838380828437600081840152601f19601f820116905080830192505050505050509192919290803590602001906401000000008111156103d457600080fd5b8201836020820111156103e657600080fd5b8035906020019184600183028401116401000000008311171561040857600080fd5b91908080601f016020809104026020016040519081016040528093929190818152602001838380828437600081840152601f19601f8201169050808301925050505050505091929192905050506107b1565b005b610464610851565b6040518082815260200191505060405180910390f35b6000803373ffffffffffffffffffffffffffffffffffffffff1673ffffffffffffffffffffffffffffffffffffffff16815260200190815260200160002060009054906101000a900460ff16156104d057600080fd5b6000811180156104e257506004548111155b6104eb57600080fd5b60016000803373ffffffffffffffffffffffffffffffffffffffff1673ffffffffffffffffffffffffffffffffffffffff16815260200190815260200160002060006101000a81548160ff021916908315150217905550600160008281526020019081526020016000206002016000815480929190600101919050555050565b60026020528060005260406000206000915090508060000154908060010154908060020154908060030154908060040154905085565b6001602052806000526040600020600091509050806000015490806001018054600181600116156101000203166002900480601f0160208091040260200160405190810160405280929190818152602001828054600181600116156101000203166002900480156106535780601f1061062857610100808354040283529160200191610653565b820191906000526020600020905b81548152906001019060200180831161063657829003601f168201915b505050505090806002015490806003018054600181600116156101000203166002900480601f0160208091040260200160405190810160405280929190818152602001828054600181600116156101000203166002900480156106f75780601f106106cc576101008083540402835291602001916106f7565b820191906000526020600020905b8154815290600101906020018083116106da57829003601f168201915b5050505050905084565b6003600081548092919060010191905055506040518060a001604052808681526020018581526020018481526020018381526020018281525060026000600354815260200190815260200160002060008201518160000155602082015181600101556040820151816002015560608201518160030155608082015181600401559050505050505050565b60006020528060005260406000206000915054906101000a900460ff1681565b60045481565b600460008154809291906001019190505550604051806080016040528060045481526020018381526020016000815260200182815250600160006004548152602001908152602001600020600082015181600001556020820151816001019080519060200190610822929190610857565b50604082015181600201556060820151816003019080519060200190610849929190610857565b509050505050565b60035481565b828054600181600116156101000203166002900490600052602060002090601f016020900481019282601f1061089857805160ff19168380011785556108c6565b828001600101855582156108c6579182015b828111156108c55782518255916020019190600101906108aa565b5b5090506108d391906108d7565b5090565b6108f991905b808211156108f55760008160009055506001016108dd565b5090565b9056fea265627a7a72315820297dcf7c705754fa856e151618d12f01790a220774c605baaf00d3e9caf5a57064736f6c63430005100032",
  "source": "pragma solidity ^0.5.0;\n\ncontract Election{ \n\t//step 1:(Smoke test) Store candidate\n\t//\t\t read candidate\n\t//\t     Contructor : we need it to run whenevr we initialize our SM upon migration\n\t//   \t\t|-> set the val of the variable(Candidate)\n\n\t//Step 2: Model a candidate\n\tstruct Candidate{\n\t\tuint id;\n\t\tstring name;\n\t\tuint countVote;\n\t\tstring partyName;\n\t}\n\n\tstruct Timer{\n\t\tuint month;\n\t\tuint day;\n\t\tuint hour;\n\t\tuint min;\n\t\tuint sec;\n\t}\n\t//mapping the voters accoording \n\t//to their address as they've voted \n\t//or not.....\n\tmapping (address => bool) public voters;\n\n\t//Store Candidate\n\t//fetch candidate\n\t//count the number of the candidates\n\tmapping(uint => Candidate) public candidates;\n\n\tmapping(uint => Timer) public TimingList;\n\n\tuint public timingNumber;\n\tuint public countCandidate;\n\n\tconstructor() public {\n\t\t// addCandidates(\"Abir\"  , \"A\");\n\t\t// addCandidates(\"Prato\" , \"B\");\n\t\t// addCandidates(\"Rakib\" , \"C\");\n\t\t// addCandidates(\"Shanto\", \"D\");\n\t}\n\n\tfunction addCandidates(string memory _name, string memory _partyName) public\n\t{\n\t\tcountCandidate++;\n\t\tcandidates[countCandidate] = Candidate(countCandidate , _name , 0 , _partyName);\n\t}\n\n\tfunction vote (uint _candidateId) public{\n\t\t//check if this voter has voted jst once as a condition\n\t\trequire(!voters[msg.sender]);\n\n\t\t//check if the the candidate id is valid as a condition\n\t\trequire( _candidateId>0 && _candidateId<=countCandidate );\n\n\t\t//mark the voter that has voted\n\t\tvoters[msg.sender] = true;\n\n\t\t//increase the votecount of a perticular candidate\n\t\tcandidates[_candidateId].countVote++;\n\t}\n\n\tfunction changeTimer(uint _month, uint _day, uint _hour, uint _min, uint _sec) public{\n\t\ttimingNumber++;\n\t\tTimingList[timingNumber] = Timer(_month , _day , _hour , _min , _sec);\n\t}\n}",
  "sourcePath": "/home/rexon/election/contracts/Election.sol",
  "compiler": {
    "name": "solc",
    "version": "0.5.16+commit.9c3226ce.Emscripten.clang"
  },
  "schemaVersion": "3.3.3",
  "updatedAt": "2021-04-19T09:46:59.543Z",
  "networkType": "ethereum",
  "devdoc": {
    "methods": {}
  },
  "userdoc": {
    "methods": {}
  }
}